{
	"_format": "hh-sol-artifact-1",
	"contractName": "USDT",
	"sourceName": "contracts/USDT.sol",
	"abi": [
		{
			"inputs": [
				{
					"internalType": "contract IERC20",
					"name": "_collERC20",
					"type": "address"
				}
			],
			"stateMutability": "nonpayable",
			"type": "constructor"
		},
		{
			"inputs": [
				{
					"internalType": "address",
					"name": "spender",
					"type": "address"
				},
				{
					"internalType": "uint256",
					"name": "allowance",
					"type": "uint256"
				},
				{
					"internalType": "uint256",
					"name": "needed",
					"type": "uint256"
				}
			],
			"name": "ERC20InsufficientAllowance",
			"type": "error"
		},
		{
			"inputs": [
				{
					"internalType": "address",
					"name": "sender",
					"type": "address"
				},
				{
					"internalType": "uint256",
					"name": "balance",
					"type": "uint256"
				},
				{
					"internalType": "uint256",
					"name": "needed",
					"type": "uint256"
				}
			],
			"name": "ERC20InsufficientBalance",
			"type": "error"
		},
		{
			"inputs": [
				{
					"internalType": "address",
					"name": "approver",
					"type": "address"
				}
			],
			"name": "ERC20InvalidApprover",
			"type": "error"
		},
		{
			"inputs": [
				{
					"internalType": "address",
					"name": "receiver",
					"type": "address"
				}
			],
			"name": "ERC20InvalidReceiver",
			"type": "error"
		},
		{
			"inputs": [
				{
					"internalType": "address",
					"name": "sender",
					"type": "address"
				}
			],
			"name": "ERC20InvalidSender",
			"type": "error"
		},
		{
			"inputs": [
				{
					"internalType": "address",
					"name": "spender",
					"type": "address"
				}
			],
			"name": "ERC20InvalidSpender",
			"type": "error"
		},
		{
			"inputs": [],
			"name": "NotEnoughBitcoinPassed",
			"type": "error"
		},
		{
			"inputs": [
				{
					"internalType": "address",
					"name": "owner",
					"type": "address"
				}
			],
			"name": "OwnableInvalidOwner",
			"type": "error"
		},
		{
			"inputs": [
				{
					"internalType": "address",
					"name": "account",
					"type": "address"
				}
			],
			"name": "OwnableUnauthorizedAccount",
			"type": "error"
		},
		{
			"anonymous": false,
			"inputs": [
				{
					"indexed": true,
					"internalType": "address",
					"name": "owner",
					"type": "address"
				},
				{
					"indexed": true,
					"internalType": "address",
					"name": "spender",
					"type": "address"
				},
				{
					"indexed": false,
					"internalType": "uint256",
					"name": "value",
					"type": "uint256"
				}
			],
			"name": "Approval",
			"type": "event"
		},
		{
			"anonymous": false,
			"inputs": [
				{
					"indexed": true,
					"internalType": "address",
					"name": "previousOwner",
					"type": "address"
				},
				{
					"indexed": true,
					"internalType": "address",
					"name": "newOwner",
					"type": "address"
				}
			],
			"name": "OwnershipTransferred",
			"type": "event"
		},
		{
			"anonymous": false,
			"inputs": [
				{
					"indexed": false,
					"internalType": "uint256",
					"name": "amount",
					"type": "uint256"
				},
				{
					"indexed": false,
					"internalType": "address",
					"name": "user",
					"type": "address"
				}
			],
			"name": "RedemptionExecuted",
			"type": "event"
		},
		{
			"anonymous": false,
			"inputs": [
				{
					"indexed": false,
					"internalType": "uint256",
					"name": "amount",
					"type": "uint256"
				},
				{
					"indexed": false,
					"internalType": "address",
					"name": "user",
					"type": "address"
				}
			],
			"name": "RedemptionRequested",
			"type": "event"
		},
		{
			"anonymous": false,
			"inputs": [
				{
					"indexed": true,
					"internalType": "address",
					"name": "from",
					"type": "address"
				},
				{
					"indexed": true,
					"internalType": "address",
					"name": "to",
					"type": "address"
				},
				{
					"indexed": false,
					"internalType": "uint256",
					"name": "value",
					"type": "uint256"
				}
			],
			"name": "Transfer",
			"type": "event"
		},
		{
			"inputs": [
				{
					"internalType": "address",
					"name": "owner",
					"type": "address"
				},
				{
					"internalType": "address",
					"name": "spender",
					"type": "address"
				}
			],
			"name": "allowance",
			"outputs": [
				{
					"internalType": "uint256",
					"name": "",
					"type": "uint256"
				}
			],
			"stateMutability": "view",
			"type": "function"
		},
		{
			"inputs": [
				{
					"internalType": "address",
					"name": "spender",
					"type": "address"
				},
				{
					"internalType": "uint256",
					"name": "value",
					"type": "uint256"
				}
			],
			"name": "approve",
			"outputs": [
				{
					"internalType": "bool",
					"name": "",
					"type": "bool"
				}
			],
			"stateMutability": "nonpayable",
			"type": "function"
		},
		{
			"inputs": [
				{
					"internalType": "address",
					"name": "account",
					"type": "address"
				}
			],
			"name": "balanceOf",
			"outputs": [
				{
					"internalType": "uint256",
					"name": "",
					"type": "uint256"
				}
			],
			"stateMutability": "view",
			"type": "function"
		},
		{
			"inputs": [],
			"name": "collateralERC20",
			"outputs": [
				{
					"internalType": "contract IERC20",
					"name": "",
					"type": "address"
				}
			],
			"stateMutability": "view",
			"type": "function"
		},
		{
			"inputs": [],
			"name": "decimals",
			"outputs": [
				{
					"internalType": "uint8",
					"name": "",
					"type": "uint8"
				}
			],
			"stateMutability": "view",
			"type": "function"
		},
		{
			"inputs": [
				{
					"internalType": "uint256",
					"name": "_amount",
					"type": "uint256"
				},
				{
					"internalType": "address",
					"name": "_receiver",
					"type": "address"
				}
			],
			"name": "mint",
			"outputs": [],
			"stateMutability": "nonpayable",
			"type": "function"
		},
		{
			"inputs": [
				{
					"internalType": "uint256",
					"name": "_amount",
					"type": "uint256"
				}
			],
			"name": "mintUsingBitcoinAsCollateral",
			"outputs": [],
			"stateMutability": "payable",
			"type": "function"
		},
		{
			"inputs": [
				{
					"internalType": "uint256",
					"name": "_amount",
					"type": "uint256"
				}
			],
			"name": "mintUsingERC20AsCollateral",
			"outputs": [],
			"stateMutability": "nonpayable",
			"type": "function"
		},
		{
			"inputs": [],
			"name": "name",
			"outputs": [
				{
					"internalType": "string",
					"name": "",
					"type": "string"
				}
			],
			"stateMutability": "view",
			"type": "function"
		},
		{
			"inputs": [],
			"name": "owner",
			"outputs": [
				{
					"internalType": "address",
					"name": "",
					"type": "address"
				}
			],
			"stateMutability": "view",
			"type": "function"
		},
		{
			"inputs": [
				{
					"internalType": "uint256",
					"name": "_amount",
					"type": "uint256"
				},
				{
					"internalType": "address",
					"name": "_user",
					"type": "address"
				}
			],
			"name": "redemptionExecuted",
			"outputs": [],
			"stateMutability": "nonpayable",
			"type": "function"
		},
		{
			"inputs": [],
			"name": "renounceOwnership",
			"outputs": [],
			"stateMutability": "nonpayable",
			"type": "function"
		},
		{
			"inputs": [
				{
					"internalType": "uint256",
					"name": "_amount",
					"type": "uint256"
				}
			],
			"name": "requestRedemption",
			"outputs": [],
			"stateMutability": "nonpayable",
			"type": "function"
		},
		{
			"inputs": [],
			"name": "symbol",
			"outputs": [
				{
					"internalType": "string",
					"name": "",
					"type": "string"
				}
			],
			"stateMutability": "view",
			"type": "function"
		},
		{
			"inputs": [],
			"name": "totalSupply",
			"outputs": [
				{
					"internalType": "uint256",
					"name": "",
					"type": "uint256"
				}
			],
			"stateMutability": "view",
			"type": "function"
		},
		{
			"inputs": [
				{
					"internalType": "address",
					"name": "to",
					"type": "address"
				},
				{
					"internalType": "uint256",
					"name": "value",
					"type": "uint256"
				}
			],
			"name": "transfer",
			"outputs": [
				{
					"internalType": "bool",
					"name": "",
					"type": "bool"
				}
			],
			"stateMutability": "nonpayable",
			"type": "function"
		},
		{
			"inputs": [
				{
					"internalType": "address",
					"name": "from",
					"type": "address"
				},
				{
					"internalType": "address",
					"name": "to",
					"type": "address"
				},
				{
					"internalType": "uint256",
					"name": "value",
					"type": "uint256"
				}
			],
			"name": "transferFrom",
			"outputs": [
				{
					"internalType": "bool",
					"name": "",
					"type": "bool"
				}
			],
			"stateMutability": "nonpayable",
			"type": "function"
		},
		{
			"inputs": [
				{
					"internalType": "address",
					"name": "newOwner",
					"type": "address"
				}
			],
			"name": "transferOwnership",
			"outputs": [],
			"stateMutability": "nonpayable",
			"type": "function"
		}
	],
	"bytecode": "0x608060405234801561001057600080fd5b50604051611d57380380611d57833981810160405281019061003291906102c5565b336040518060400160405280601581526020017f52756e65206173204552433230204578616d706c6500000000000000000000008152506040518060400160405280600681526020017f524552433230000000000000000000000000000000000000000000000000000081525081600390816100ae9190610542565b5080600490816100be9190610542565b505050600073ffffffffffffffffffffffffffffffffffffffff168173ffffffffffffffffffffffffffffffffffffffff16036101335760006040517f1e4fbdf700000000000000000000000000000000000000000000000000000000815260040161012a9190610623565b60405180910390fd5b6101428161018a60201b60201c565b5080600660006101000a81548173ffffffffffffffffffffffffffffffffffffffff021916908373ffffffffffffffffffffffffffffffffffffffff1602179055505061063e565b6000600560009054906101000a900473ffffffffffffffffffffffffffffffffffffffff16905081600560006101000a81548173ffffffffffffffffffffffffffffffffffffffff021916908373ffffffffffffffffffffffffffffffffffffffff1602179055508173ffffffffffffffffffffffffffffffffffffffff168173ffffffffffffffffffffffffffffffffffffffff167f8be0079c531659141344cd1fd0a4f28419497f9722a3daafe3b4186f6b6457e060405160405180910390a35050565b600080fd5b600073ffffffffffffffffffffffffffffffffffffffff82169050919050565b600061028082610255565b9050919050565b600061029282610275565b9050919050565b6102a281610287565b81146102ad57600080fd5b50565b6000815190506102bf81610299565b92915050565b6000602082840312156102db576102da610250565b5b60006102e9848285016102b0565b91505092915050565b600081519050919050565b7f4e487b7100000000000000000000000000000000000000000000000000000000600052604160045260246000fd5b7f4e487b7100000000000000000000000000000000000000000000000000000000600052602260045260246000fd5b6000600282049050600182168061037357607f821691505b6020821081036103865761038561032c565b5b50919050565b60008190508160005260206000209050919050565b60006020601f8301049050919050565b600082821b905092915050565b6000600883026103ee7fffffffffffffffffffffffffffffffffffffffffffffffffffffffffffffffff826103b1565b6103f886836103b1565b95508019841693508086168417925050509392505050565b6000819050919050565b6000819050919050565b600061043f61043a61043584610410565b61041a565b610410565b9050919050565b6000819050919050565b61045983610424565b61046d61046582610446565b8484546103be565b825550505050565b600090565b610482610475565b61048d818484610450565b505050565b5b818110156104b1576104a660008261047a565b600181019050610493565b5050565b601f8211156104f6576104c78161038c565b6104d0846103a1565b810160208510156104df578190505b6104f36104eb856103a1565b830182610492565b50505b505050565b600082821c905092915050565b6000610519600019846008026104fb565b1980831691505092915050565b60006105328383610508565b9150826002028217905092915050565b61054b826102f2565b67ffffffffffffffff811115610564576105636102fd565b5b61056e825461035b565b6105798282856104b5565b600060209050601f8311600181146105ac576000841561059a578287015190505b6105a48582610526565b86555061060c565b601f1984166105ba8661038c565b60005b828110156105e2578489015182556001820191506020850194506020810190506105bd565b868310156105ff57848901516105fb601f891682610508565b8355505b6001600288020188555050505b505050505050565b61061d81610275565b82525050565b60006020820190506106386000830184610614565b92915050565b61170a8061064d6000396000f3fe6080604052600436106101095760003560e01c80638da5cb5b11610095578063bfc76b8111610064578063bfc76b811461036d578063c40a140614610389578063dd62ed3e146103b2578063eeb3c910146103ef578063f2fde38b1461041857610109565b80638da5cb5b146102b157806394bf804d146102dc57806395d89b4114610305578063a9059cbb1461033057610109565b806323b872dd116100dc57806323b872dd146101ca578063313ce5671461020757806370a0823114610232578063715018a61461026f578063724d37451461028657610109565b80630140f0921461010e57806306fdde0314610137578063095ea7b31461016257806318160ddd1461019f575b600080fd5b34801561011a57600080fd5b5061013560048036038101906101309190611169565b610441565b005b34801561014357600080fd5b5061014c6104f1565b6040516101599190611226565b60405180910390f35b34801561016e57600080fd5b50610189600480360381019061018491906112a6565b610583565b6040516101969190611301565b60405180910390f35b3480156101ab57600080fd5b506101b46105a6565b6040516101c1919061132b565b60405180910390f35b3480156101d657600080fd5b506101f160048036038101906101ec9190611346565b6105b0565b6040516101fe9190611301565b60405180910390f35b34801561021357600080fd5b5061021c6105df565b60405161022991906113b5565b60405180910390f35b34801561023e57600080fd5b50610259600480360381019061025491906113d0565b6105e8565b604051610266919061132b565b60405180910390f35b34801561027b57600080fd5b50610284610630565b005b34801561029257600080fd5b5061029b610644565b6040516102a8919061145c565b60405180910390f35b3480156102bd57600080fd5b506102c661066a565b6040516102d39190611486565b60405180910390f35b3480156102e857600080fd5b5061030360048036038101906102fe91906114a1565b610694565b005b34801561031157600080fd5b5061031a6106aa565b6040516103279190611226565b60405180910390f35b34801561033c57600080fd5b50610357600480360381019061035291906112a6565b61073c565b6040516103649190611301565b60405180910390f35b61038760048036038101906103829190611169565b61075f565b005b34801561039557600080fd5b506103b060048036038101906103ab91906114a1565b6107a6565b005b3480156103be57600080fd5b506103d960048036038101906103d491906114e1565b6107eb565b6040516103e6919061132b565b60405180910390f35b3480156103fb57600080fd5b5061041660048036038101906104119190611169565b610872565b005b34801561042457600080fd5b5061043f600480360381019061043a91906113d0565b6108b8565b005b600660009054906101000a900473ffffffffffffffffffffffffffffffffffffffff1673ffffffffffffffffffffffffffffffffffffffff166323b872dd3330846040518463ffffffff1660e01b81526004016104a093929190611521565b6020604051808303816000875af11580156104bf573d6000803e3d6000fd5b505050506040513d601f19601f820116820180604052508101906104e39190611584565b506104ee338261093e565b50565b606060038054610500906115e0565b80601f016020809104026020016040519081016040528092919081815260200182805461052c906115e0565b80156105795780601f1061054e57610100808354040283529160200191610579565b820191906000526020600020905b81548152906001019060200180831161055c57829003601f168201915b5050505050905090565b60008061058e6109c0565b905061059b8185856109c8565b600191505092915050565b6000600254905090565b6000806105bb6109c0565b90506105c88582856109da565b6105d3858585610a6f565b60019150509392505050565b60006012905090565b60008060008373ffffffffffffffffffffffffffffffffffffffff1673ffffffffffffffffffffffffffffffffffffffff168152602001908152602001600020549050919050565b610638610b63565b6106426000610bea565b565b600660009054906101000a900473ffffffffffffffffffffffffffffffffffffffff1681565b6000600560009054906101000a900473ffffffffffffffffffffffffffffffffffffffff16905090565b61069c610b63565b6106a6818361093e565b5050565b6060600480546106b9906115e0565b80601f01602080910402602001604051908101604052809291908181526020018280546106e5906115e0565b80156107325780601f1061070757610100808354040283529160200191610732565b820191906000526020600020905b81548152906001019060200180831161071557829003601f168201915b5050505050905090565b6000806107476109c0565b9050610754818585610a6f565b600191505092915050565b34811115610799576040517f83aed46f00000000000000000000000000000000000000000000000000000000815260040160405180910390fd5b6107a3338261093e565b50565b6107ae610b63565b7f55099cd21342531327586550128803d24dc003f6f50fbc598da73f32671b50dc82826040516107df929190611611565b60405180910390a15050565b6000600160008473ffffffffffffffffffffffffffffffffffffffff1673ffffffffffffffffffffffffffffffffffffffff16815260200190815260200160002060008373ffffffffffffffffffffffffffffffffffffffff1673ffffffffffffffffffffffffffffffffffffffff16815260200190815260200160002054905092915050565b61087c3382610cb0565b7f85940b0a3a957ba8f922b430fc92c0450485a953bbe540709aff7070ed480f4681336040516108ad929190611611565b60405180910390a150565b6108c0610b63565b600073ffffffffffffffffffffffffffffffffffffffff168173ffffffffffffffffffffffffffffffffffffffff16036109325760006040517f1e4fbdf70000000000000000000000000000000000000000000000000000000081526004016109299190611486565b60405180910390fd5b61093b81610bea565b50565b600073ffffffffffffffffffffffffffffffffffffffff168273ffffffffffffffffffffffffffffffffffffffff16036109b05760006040517fec442f050000000000000000000000000000000000000000000000000000000081526004016109a79190611486565b60405180910390fd5b6109bc60008383610d32565b5050565b600033905090565b6109d58383836001610f57565b505050565b60006109e684846107eb565b90507fffffffffffffffffffffffffffffffffffffffffffffffffffffffffffffffff811015610a695781811015610a59578281836040517ffb8f41b2000000000000000000000000000000000000000000000000000000008152600401610a509392919061163a565b60405180910390fd5b610a6884848484036000610f57565b5b50505050565b600073ffffffffffffffffffffffffffffffffffffffff168373ffffffffffffffffffffffffffffffffffffffff1603610ae15760006040517f96c6fd1e000000000000000000000000000000000000000000000000000000008152600401610ad89190611486565b60405180910390fd5b600073ffffffffffffffffffffffffffffffffffffffff168273ffffffffffffffffffffffffffffffffffffffff1603610b535760006040517fec442f05000000000000000000000000000000000000000000000000000000008152600401610b4a9190611486565b60405180910390fd5b610b5e838383610d32565b505050565b610b6b6109c0565b73ffffffffffffffffffffffffffffffffffffffff16610b8961066a565b73ffffffffffffffffffffffffffffffffffffffff1614610be857610bac6109c0565b6040517f118cdaa7000000000000000000000000000000000000000000000000000000008152600401610bdf9190611486565b60405180910390fd5b565b6000600560009054906101000a900473ffffffffffffffffffffffffffffffffffffffff16905081600560006101000a81548173ffffffffffffffffffffffffffffffffffffffff021916908373ffffffffffffffffffffffffffffffffffffffff1602179055508173ffffffffffffffffffffffffffffffffffffffff168173ffffffffffffffffffffffffffffffffffffffff167f8be0079c531659141344cd1fd0a4f28419497f9722a3daafe3b4186f6b6457e060405160405180910390a35050565b600073ffffffffffffffffffffffffffffffffffffffff168273ffffffffffffffffffffffffffffffffffffffff1603610d225760006040517f96c6fd1e000000000000000000000000000000000000000000000000000000008152600401610d199190611486565b60405180910390fd5b610d2e82600083610d32565b5050565b600073ffffffffffffffffffffffffffffffffffffffff168373ffffffffffffffffffffffffffffffffffffffff1603610d84578060026000828254610d7891906116a0565b92505081905550610e57565b60008060008573ffffffffffffffffffffffffffffffffffffffff1673ffffffffffffffffffffffffffffffffffffffff16815260200190815260200160002054905081811015610e10578381836040517fe450d38c000000000000000000000000000000000000000000000000000000008152600401610e079392919061163a565b60405180910390fd5b8181036000808673ffffffffffffffffffffffffffffffffffffffff1673ffffffffffffffffffffffffffffffffffffffff16815260200190815260200160002081905550505b600073ffffffffffffffffffffffffffffffffffffffff168273ffffffffffffffffffffffffffffffffffffffff1603610ea05780600260008282540392505081905550610eed565b806000808473ffffffffffffffffffffffffffffffffffffffff1673ffffffffffffffffffffffffffffffffffffffff168152602001908152602001600020600082825401925050819055505b8173ffffffffffffffffffffffffffffffffffffffff168373ffffffffffffffffffffffffffffffffffffffff167fddf252ad1be2c89b69c2b068fc378daa952ba7f163c4a11628f55a4df523b3ef83604051610f4a919061132b565b60405180910390a3505050565b600073ffffffffffffffffffffffffffffffffffffffff168473ffffffffffffffffffffffffffffffffffffffff1603610fc95760006040517fe602df05000000000000000000000000000000000000000000000000000000008152600401610fc09190611486565b60405180910390fd5b600073ffffffffffffffffffffffffffffffffffffffff168373ffffffffffffffffffffffffffffffffffffffff160361103b5760006040517f94280d620000000000000000000000000000000000000000000000000000000081526004016110329190611486565b60405180910390fd5b81600160008673ffffffffffffffffffffffffffffffffffffffff1673ffffffffffffffffffffffffffffffffffffffff16815260200190815260200160002060008573ffffffffffffffffffffffffffffffffffffffff1673ffffffffffffffffffffffffffffffffffffffff168152602001908152602001600020819055508015611128578273ffffffffffffffffffffffffffffffffffffffff168473ffffffffffffffffffffffffffffffffffffffff167f8c5be1e5ebec7d5bd14f71427d1e84f3dd0314c0f7b2291e5b200ac8c7c3b9258460405161111f919061132b565b60405180910390a35b50505050565b600080fd5b6000819050919050565b61114681611133565b811461115157600080fd5b50565b6000813590506111638161113d565b92915050565b60006020828403121561117f5761117e61112e565b5b600061118d84828501611154565b91505092915050565b600081519050919050565b600082825260208201905092915050565b60005b838110156111d05780820151818401526020810190506111b5565b60008484015250505050565b6000601f19601f8301169050919050565b60006111f882611196565b61120281856111a1565b93506112128185602086016111b2565b61121b816111dc565b840191505092915050565b6000602082019050818103600083015261124081846111ed565b905092915050565b600073ffffffffffffffffffffffffffffffffffffffff82169050919050565b600061127382611248565b9050919050565b61128381611268565b811461128e57600080fd5b50565b6000813590506112a08161127a565b92915050565b600080604083850312156112bd576112bc61112e565b5b60006112cb85828601611291565b92505060206112dc85828601611154565b9150509250929050565b60008115159050919050565b6112fb816112e6565b82525050565b600060208201905061131660008301846112f2565b92915050565b61132581611133565b82525050565b6000602082019050611340600083018461131c565b92915050565b60008060006060848603121561135f5761135e61112e565b5b600061136d86828701611291565b935050602061137e86828701611291565b925050604061138f86828701611154565b9150509250925092565b600060ff82169050919050565b6113af81611399565b82525050565b60006020820190506113ca60008301846113a6565b92915050565b6000602082840312156113e6576113e561112e565b5b60006113f484828501611291565b91505092915050565b6000819050919050565b600061142261141d61141884611248565b6113fd565b611248565b9050919050565b600061143482611407565b9050919050565b600061144682611429565b9050919050565b6114568161143b565b82525050565b6000602082019050611471600083018461144d565b92915050565b61148081611268565b82525050565b600060208201905061149b6000830184611477565b92915050565b600080604083850312156114b8576114b761112e565b5b60006114c685828601611154565b92505060206114d785828601611291565b9150509250929050565b600080604083850312156114f8576114f761112e565b5b600061150685828601611291565b925050602061151785828601611291565b9150509250929050565b60006060820190506115366000830186611477565b6115436020830185611477565b611550604083018461131c565b949350505050565b611561816112e6565b811461156c57600080fd5b50565b60008151905061157e81611558565b92915050565b60006020828403121561159a5761159961112e565b5b60006115a88482850161156f565b91505092915050565b7f4e487b7100000000000000000000000000000000000000000000000000000000600052602260045260246000fd5b600060028204905060018216806115f857607f821691505b60208210810361160b5761160a6115b1565b5b50919050565b6000604082019050611626600083018561131c565b6116336020830184611477565b9392505050565b600060608201905061164f6000830186611477565b61165c602083018561131c565b611669604083018461131c565b949350505050565b7f4e487b7100000000000000000000000000000000000000000000000000000000600052601160045260246000fd5b60006116ab82611133565b91506116b683611133565b92508282019050808211156116ce576116cd611671565b5b9291505056fea264697066735822122079b7aacdfdd9e743cf5686b28c712ae877c2e90aa06e8307a85b829aa99eecb364736f6c634300081c0033",
	"linkReferences": {},
	"deployedLinkReferences": {}
}