{
  "_format": "hh-sol-artifact-1",
  "contractName": "FlashLoanUser",
  "sourceName": "contracts/FlashLoanUser.sol",
  "abi": [
    {
      "inputs": [],
      "name": "executeFlashLoan",
      "outputs": [
        {
          "internalType": "uint256",
          "name": "",
          "type": "uint256"
        }
      ],
      "stateMutability": "nonpayable",
      "type": "function"
    },
    {
      "inputs": [],
      "name": "lastFlashLoanResult",
      "outputs": [
        {
          "internalType": "uint256",
          "name": "",
          "type": "uint256"
        }
      ],
      "stateMutability": "view",
      "type": "function"
    }
  ],
  "bytecode": "0x6080604052348015600f57600080fd5b506101c58061001f6000396000f3fe608060405234801561001057600080fd5b50600436106100365760003560e01c8063570b3e1a1461003b578063c4b5cf5a14610059575b600080fd5b610043610077565b6040516100509190610116565b60405180910390f35b61006161007d565b60405161006e9190610116565b60405180910390f35b60005481565b60008073__$835be7d7be9ca89e2f51ad3a315ffdd962$__630dbe671f6040518163ffffffff1660e01b8152600401602060405180830381865af41580156100c9573d6000803e3d6000fd5b505050506040513d601f19601f820116820180604052508101906100ed9190610162565b9050806000819055508091505090565b6000819050919050565b610110816100fd565b82525050565b600060208201905061012b6000830184610107565b92915050565b600080fd5b61013f816100fd565b811461014a57600080fd5b50565b60008151905061015c81610136565b92915050565b60006020828403121561017857610177610131565b5b60006101868482850161014d565b9150509291505056fea2646970667358221220e89a3c06dafa9459d2f4a981d3d829be8cbc82983ce182598f43d59519defc4264736f6c634300081c0033",
  "linkReferences": {
    "contracts/FlashLoanLogic.sol": {
      "FlashLoanLogic": [
        {
          "length": 20,
          "start": 161
        }
      ]
    }
  },
  "deployedLinkReferences": {
    "contracts/FlashLoanLogic.sol": {
      "FlashLoanLogic": [
        {
          "length": 20,
          "start": 130
        }
      ]
    }
  }
}