{
  "_format": "hh-sol-artifact-1",
  "contractName": "StructFunctionParam",
  "sourceName": "contracts/StructFunctionParam.sol",
  "abi": [
    {
      "inputs": [
        {
          "components": [
            {
              "internalType": "string",
              "name": "first",
              "type": "string"
            },
            {
              "internalType": "uint256",
              "name": "second",
              "type": "uint256"
            },
            {
              "internalType": "address",
              "name": "third",
              "type": "address"
            }
          ],
          "internalType": "struct StructFunctionParam.Foo[]",
          "name": "_params",
          "type": "tuple[]"
        }
      ],
      "name": "foo",
      "outputs": [
        {
          "internalType": "uint256",
          "name": "",
          "type": "uint256"
        }
      ],
      "stateMutability": "nonpayable",
      "type": "function"
    }
  ],
  "bytecode": "0x6080604052348015600f57600080fd5b506101928061001f6000396000f3fe608060405234801561001057600080fd5b506004361061002b5760003560e01c80637e8006ed14610030575b600080fd5b61004a600480360381019061004591906100db565b610060565b6040516100579190610141565b60405180910390f35b60006001905092915050565b600080fd5b600080fd5b600080fd5b600080fd5b600080fd5b60008083601f84011261009b5761009a610076565b5b8235905067ffffffffffffffff8111156100b8576100b761007b565b5b6020830191508360208202830111156100d4576100d3610080565b5b9250929050565b600080602083850312156100f2576100f161006c565b5b600083013567ffffffffffffffff8111156101105761010f610071565b5b61011c85828601610085565b92509250509250929050565b6000819050919050565b61013b81610128565b82525050565b60006020820190506101566000830184610132565b9291505056fea2646970667358221220947f28b493f1d3c054d077fa83728e20bea634a7c1979764cac97d521d7e371a64736f6c634300081c0033",
  "linkReferences": {},
  "deployedLinkReferences": {}
}