{
  "_format": "hh-sol-artifact-1",
  "contractName": "VDelegateMidl",
  "sourceName": "contracts/VDelegateMidl.sol",
  "abi": [
    {
      "inputs": [
        {
          "internalType": "address",
          "name": "spender",
          "type": "address"
        },
        {
          "internalType": "uint256",
          "name": "allowance",
          "type": "uint256"
        },
        {
          "internalType": "uint256",
          "name": "needed",
          "type": "uint256"
        }
      ],
      "name": "ERC20InsufficientAllowance",
      "type": "error"
    },
    {
      "inputs": [
        {
          "internalType": "address",
          "name": "sender",
          "type": "address"
        },
        {
          "internalType": "uint256",
          "name": "balance",
          "type": "uint256"
        },
        {
          "internalType": "uint256",
          "name": "needed",
          "type": "uint256"
        }
      ],
      "name": "ERC20InsufficientBalance",
      "type": "error"
    },
    {
      "inputs": [
        {
          "internalType": "address",
          "name": "approver",
          "type": "address"
        }
      ],
      "name": "ERC20InvalidApprover",
      "type": "error"
    },
    {
      "inputs": [
        {
          "internalType": "address",
          "name": "receiver",
          "type": "address"
        }
      ],
      "name": "ERC20InvalidReceiver",
      "type": "error"
    },
    {
      "inputs": [
        {
          "internalType": "address",
          "name": "sender",
          "type": "address"
        }
      ],
      "name": "ERC20InvalidSender",
      "type": "error"
    },
    {
      "inputs": [
        {
          "internalType": "address",
          "name": "spender",
          "type": "address"
        }
      ],
      "name": "ERC20InvalidSpender",
      "type": "error"
    },
    {
      "inputs": [],
      "name": "EnforcedPause",
      "type": "error"
    },
    {
      "inputs": [],
      "name": "ExpectedPause",
      "type": "error"
    },
    {
      "inputs": [],
      "name": "InvalidInitialization",
      "type": "error"
    },
    {
      "inputs": [],
      "name": "NotInitializing",
      "type": "error"
    },
    {
      "inputs": [
        {
          "internalType": "address",
          "name": "owner",
          "type": "address"
        }
      ],
      "name": "OwnableInvalidOwner",
      "type": "error"
    },
    {
      "inputs": [
        {
          "internalType": "address",
          "name": "account",
          "type": "address"
        }
      ],
      "name": "OwnableUnauthorizedAccount",
      "type": "error"
    },
    {
      "inputs": [],
      "name": "ReentrancyGuardReentrantCall",
      "type": "error"
    },
    {
      "anonymous": false,
      "inputs": [
        {
          "indexed": true,
          "internalType": "address",
          "name": "owner",
          "type": "address"
        },
        {
          "indexed": true,
          "internalType": "address",
          "name": "spender",
          "type": "address"
        },
        {
          "indexed": false,
          "internalType": "uint256",
          "name": "value",
          "type": "uint256"
        }
      ],
      "name": "Approval",
      "type": "event"
    },
    {
      "anonymous": false,
      "inputs": [
        {
          "indexed": false,
          "internalType": "address",
          "name": "depositor",
          "type": "address"
        },
        {
          "indexed": false,
          "internalType": "uint256",
          "name": "amount",
          "type": "uint256"
        }
      ],
      "name": "Deposited",
      "type": "event"
    },
    {
      "anonymous": false,
      "inputs": [
        {
          "indexed": false,
          "internalType": "uint64",
          "name": "version",
          "type": "uint64"
        }
      ],
      "name": "Initialized",
      "type": "event"
    },
    {
      "anonymous": false,
      "inputs": [
        {
          "indexed": false,
          "internalType": "address[]",
          "name": "user",
          "type": "address[]"
        },
        {
          "indexed": false,
          "internalType": "uint256[]",
          "name": "reward",
          "type": "uint256[]"
        }
      ],
      "name": "MultiUserConfigSet",
      "type": "event"
    },
    {
      "anonymous": false,
      "inputs": [
        {
          "indexed": true,
          "internalType": "address",
          "name": "previousOwner",
          "type": "address"
        },
        {
          "indexed": true,
          "internalType": "address",
          "name": "newOwner",
          "type": "address"
        }
      ],
      "name": "OwnershipTransferred",
      "type": "event"
    },
    {
      "anonymous": false,
      "inputs": [
        {
          "indexed": false,
          "internalType": "address",
          "name": "account",
          "type": "address"
        }
      ],
      "name": "Paused",
      "type": "event"
    },
    {
      "anonymous": false,
      "inputs": [
        {
          "indexed": false,
          "internalType": "address",
          "name": "claimer",
          "type": "address"
        },
        {
          "indexed": false,
          "internalType": "uint256",
          "name": "amount",
          "type": "uint256"
        }
      ],
      "name": "RewardClaimed",
      "type": "event"
    },
    {
      "anonymous": false,
      "inputs": [
        {
          "indexed": true,
          "internalType": "address",
          "name": "from",
          "type": "address"
        },
        {
          "indexed": true,
          "internalType": "address",
          "name": "to",
          "type": "address"
        },
        {
          "indexed": false,
          "internalType": "uint256",
          "name": "value",
          "type": "uint256"
        }
      ],
      "name": "Transfer",
      "type": "event"
    },
    {
      "anonymous": false,
      "inputs": [
        {
          "indexed": false,
          "internalType": "address",
          "name": "account",
          "type": "address"
        }
      ],
      "name": "Unpaused",
      "type": "event"
    },
    {
      "anonymous": false,
      "inputs": [
        {
          "indexed": false,
          "internalType": "address",
          "name": "user",
          "type": "address"
        },
        {
          "indexed": false,
          "internalType": "uint256",
          "name": "reward",
          "type": "uint256"
        }
      ],
      "name": "UserConfigSet",
      "type": "event"
    },
    {
      "inputs": [
        {
          "internalType": "address",
          "name": "owner",
          "type": "address"
        },
        {
          "internalType": "address",
          "name": "spender",
          "type": "address"
        }
      ],
      "name": "allowance",
      "outputs": [
        {
          "internalType": "uint256",
          "name": "",
          "type": "uint256"
        }
      ],
      "stateMutability": "view",
      "type": "function"
    },
    {
      "inputs": [
        {
          "internalType": "address",
          "name": "spender",
          "type": "address"
        },
        {
          "internalType": "uint256",
          "name": "value",
          "type": "uint256"
        }
      ],
      "name": "approve",
      "outputs": [
        {
          "internalType": "bool",
          "name": "",
          "type": "bool"
        }
      ],
      "stateMutability": "nonpayable",
      "type": "function"
    },
    {
      "inputs": [
        {
          "internalType": "address",
          "name": "account",
          "type": "address"
        }
      ],
      "name": "balanceOf",
      "outputs": [
        {
          "internalType": "uint256",
          "name": "",
          "type": "uint256"
        }
      ],
      "stateMutability": "view",
      "type": "function"
    },
    {
      "inputs": [],
      "name": "claimReward",
      "outputs": [],
      "stateMutability": "nonpayable",
      "type": "function"
    },
    {
      "inputs": [],
      "name": "decimals",
      "outputs": [
        {
          "internalType": "uint8",
          "name": "",
          "type": "uint8"
        }
      ],
      "stateMutability": "view",
      "type": "function"
    },
    {
      "inputs": [],
      "name": "initialize",
      "outputs": [],
      "stateMutability": "nonpayable",
      "type": "function"
    },
    {
      "inputs": [
        {
          "internalType": "address[]",
          "name": "_users",
          "type": "address[]"
        },
        {
          "internalType": "uint256[]",
          "name": "_rewards",
          "type": "uint256[]"
        }
      ],
      "name": "multiSetRewardByUser",
      "outputs": [],
      "stateMutability": "nonpayable",
      "type": "function"
    },
    {
      "inputs": [
        {
          "internalType": "address[]",
          "name": "_users",
          "type": "address[]"
        },
        {
          "internalType": "uint256[]",
          "name": "_rewards",
          "type": "uint256[]"
        }
      ],
      "name": "multiSetRewardByUserWithReclaimRight",
      "outputs": [],
      "stateMutability": "nonpayable",
      "type": "function"
    },
    {
      "inputs": [],
      "name": "name",
      "outputs": [
        {
          "internalType": "string",
          "name": "",
          "type": "string"
        }
      ],
      "stateMutability": "view",
      "type": "function"
    },
    {
      "inputs": [],
      "name": "owner",
      "outputs": [
        {
          "internalType": "address",
          "name": "",
          "type": "address"
        }
      ],
      "stateMutability": "view",
      "type": "function"
    },
    {
      "inputs": [],
      "name": "pause",
      "outputs": [],
      "stateMutability": "nonpayable",
      "type": "function"
    },
    {
      "inputs": [],
      "name": "paused",
      "outputs": [
        {
          "internalType": "bool",
          "name": "",
          "type": "bool"
        }
      ],
      "stateMutability": "view",
      "type": "function"
    },
    {
      "inputs": [],
      "name": "renounceOwnership",
      "outputs": [],
      "stateMutability": "nonpayable",
      "type": "function"
    },
    {
      "inputs": [
        {
          "internalType": "address",
          "name": "",
          "type": "address"
        }
      ],
      "name": "rewardByUser",
      "outputs": [
        {
          "internalType": "uint256",
          "name": "",
          "type": "uint256"
        }
      ],
      "stateMutability": "view",
      "type": "function"
    },
    {
      "inputs": [
        {
          "internalType": "address",
          "name": "_user",
          "type": "address"
        },
        {
          "internalType": "uint256",
          "name": "_reward",
          "type": "uint256"
        }
      ],
      "name": "setRewardByUser",
      "outputs": [],
      "stateMutability": "nonpayable",
      "type": "function"
    },
    {
      "inputs": [],
      "name": "symbol",
      "outputs": [
        {
          "internalType": "string",
          "name": "",
          "type": "string"
        }
      ],
      "stateMutability": "view",
      "type": "function"
    },
    {
      "inputs": [],
      "name": "totalSupply",
      "outputs": [
        {
          "internalType": "uint256",
          "name": "",
          "type": "uint256"
        }
      ],
      "stateMutability": "view",
      "type": "function"
    },
    {
      "inputs": [
        {
          "internalType": "address",
          "name": "to",
          "type": "address"
        },
        {
          "internalType": "uint256",
          "name": "value",
          "type": "uint256"
        }
      ],
      "name": "transfer",
      "outputs": [
        {
          "internalType": "bool",
          "name": "",
          "type": "bool"
        }
      ],
      "stateMutability": "nonpayable",
      "type": "function"
    },
    {
      "inputs": [
        {
          "internalType": "address",
          "name": "from",
          "type": "address"
        },
        {
          "internalType": "address",
          "name": "to",
          "type": "address"
        },
        {
          "internalType": "uint256",
          "name": "value",
          "type": "uint256"
        }
      ],
      "name": "transferFrom",
      "outputs": [
        {
          "internalType": "bool",
          "name": "",
          "type": "bool"
        }
      ],
      "stateMutability": "nonpayable",
      "type": "function"
    },
    {
      "inputs": [
        {
          "internalType": "address",
          "name": "newOwner",
          "type": "address"
        }
      ],
      "name": "transferOwnership",
      "outputs": [],
      "stateMutability": "nonpayable",
      "type": "function"
    },
    {
      "inputs": [],
      "name": "unpause",
      "outputs": [],
      "stateMutability": "nonpayable",
      "type": "function"
    },
    {
      "inputs": [
        {
          "internalType": "address",
          "name": "",
          "type": "address"
        }
      ],
      "name": "userClaimed",
      "outputs": [
        {
          "internalType": "bool",
          "name": "",
          "type": "bool"
        }
      ],
      "stateMutability": "view",
      "type": "function"
    }
  ],
  "bytecode": "0x6080604052348015600f57600080fd5b506127d58061001f6000396000f3fe608060405234801561001057600080fd5b50600436106101425760003560e01c806370a08231116100b857806395d89b411161007c57806395d89b4114610319578063a9059cbb14610337578063b88a802f14610367578063c027605e14610371578063dd62ed3e146103a1578063f2fde38b146103d157610142565b806370a08231146102ad578063715018a6146102dd5780638129fc1c146102e75780638456cb59146102f15780638da5cb5b146102fb57610142565b80633b7fcdca1161010a5780633b7fcdca146102015780633f4ba83a1461023157806343f9c88c1461023b57806345e3d4d1146102575780635c975abb146102735780635f598aab1461029157610142565b806306fdde0314610147578063095ea7b31461016557806318160ddd1461019557806323b872dd146101b3578063313ce567146101e3575b600080fd5b61014f6103ed565b60405161015c9190611c2a565b60405180910390f35b61017f600480360381019061017a9190611cea565b61048e565b60405161018c9190611d45565b60405180910390f35b61019d6104b1565b6040516101aa9190611d6f565b60405180910390f35b6101cd60048036038101906101c89190611d8a565b6104c9565b6040516101da9190611d45565b60405180910390f35b6101eb6104f8565b6040516101f89190611df9565b60405180910390f35b61021b60048036038101906102169190611e14565b610501565b6040516102289190611d45565b60405180910390f35b610239610521565b005b61025560048036038101906102509190611efc565b610533565b005b610271600480360381019061026c9190611cea565b610665565b005b61027b610745565b6040516102889190611d45565b60405180910390f35b6102ab60048036038101906102a69190611efc565b61076a565b005b6102c760048036038101906102c29190611e14565b61091b565b6040516102d49190611d6f565b60405180910390f35b6102e5610972565b005b6102ef610986565b005b6102f9610b9c565b005b610303610bae565b6040516103109190611f8c565b60405180910390f35b610321610be6565b60405161032e9190611c2a565b60405180910390f35b610351600480360381019061034c9190611cea565b610c87565b60405161035e9190611d45565b60405180910390f35b61036f610caa565b005b61038b60048036038101906103869190611e14565b610ebe565b6040516103989190611d6f565b60405180910390f35b6103bb60048036038101906103b69190611fa7565b610ed6565b6040516103c89190611d6f565b60405180910390f35b6103eb60048036038101906103e69190611e14565b610f6b565b005b606060006103f9610ff1565b905080600301805461040a90612016565b80601f016020809104026020016040519081016040528092919081815260200182805461043690612016565b80156104835780601f1061045857610100808354040283529160200191610483565b820191906000526020600020905b81548152906001019060200180831161046657829003601f168201915b505050505091505090565b600080610499611019565b90506104a6818585611021565b600191505092915050565b6000806104bc610ff1565b9050806002015491505090565b6000806104d4611019565b90506104e1858285611033565b6104ec8585856110c8565b60019150509392505050565b60006012905090565b60016020528060005260406000206000915054906101000a900460ff1681565b6105296111bc565b610531611243565b565b61053b6111bc565b818190508484905014610583576040517f08c379a000000000000000000000000000000000000000000000000000000000815260040161057a90612093565b60405180910390fd5b60005b84849050811015610621578282828181106105a4576105a36120b3565b5b905060200201356000808787858181106105c1576105c06120b3565b5b90506020020160208101906105d69190611e14565b73ffffffffffffffffffffffffffffffffffffffff1673ffffffffffffffffffffffffffffffffffffffff168152602001908152602001600020819055508080600101915050610586565b507fdc8c2e758ab509810d5920887d2bfe443aef37384abe69c09806b7dce5033a5c848484846040516106579493929190612220565b60405180910390a150505050565b61066d6111bc565b806000808473ffffffffffffffffffffffffffffffffffffffff1673ffffffffffffffffffffffffffffffffffffffff168152602001908152602001600020819055506000600160008473ffffffffffffffffffffffffffffffffffffffff1673ffffffffffffffffffffffffffffffffffffffff16815260200190815260200160002060006101000a81548160ff0219169083151502179055507f511ad71dd60799858d55e0ba7e9127b47314a73eb8b06f748105c1cea1df7499828260405161073992919061225b565b60405180910390a15050565b6000806107506112b5565b90508060000160009054906101000a900460ff1691505090565b6107726111bc565b8181905084849050146107ba576040517f08c379a00000000000000000000000000000000000000000000000000000000081526004016107b190612093565b60405180910390fd5b60005b848490508110156108d7578282828181106107db576107da6120b3565b5b905060200201356000808787858181106107f8576107f76120b3565b5b905060200201602081019061080d9190611e14565b73ffffffffffffffffffffffffffffffffffffffff1673ffffffffffffffffffffffffffffffffffffffff16815260200190815260200160002081905550600060016000878785818110610864576108636120b3565b5b90506020020160208101906108799190611e14565b73ffffffffffffffffffffffffffffffffffffffff1673ffffffffffffffffffffffffffffffffffffffff16815260200190815260200160002060006101000a81548160ff02191690831515021790555080806001019150506107bd565b507fdc8c2e758ab509810d5920887d2bfe443aef37384abe69c09806b7dce5033a5c8484848460405161090d9493929190612220565b60405180910390a150505050565b600080610926610ff1565b90508060000160008473ffffffffffffffffffffffffffffffffffffffff1673ffffffffffffffffffffffffffffffffffffffff16815260200190815260200160002054915050919050565b61097a6111bc565b61098460006112dd565b565b60006109906113b4565b905060008160000160089054906101000a900460ff1615905060008260000160009054906101000a900467ffffffffffffffff1690506000808267ffffffffffffffff161480156109de5750825b9050600060018367ffffffffffffffff16148015610a13575060003073ffffffffffffffffffffffffffffffffffffffff163b145b905081158015610a21575080155b15610a58576040517ff92ee8a900000000000000000000000000000000000000000000000000000000815260040160405180910390fd5b60018560000160006101000a81548167ffffffffffffffff021916908367ffffffffffffffff1602179055508315610aa85760018560000160086101000a81548160ff0219169083151502179055505b610ab1336113c8565b610b256040518060400160405280600f81526020017f476f7665726e616e6365204d69646c00000000000000000000000000000000008152506040518060400160405280600581526020017f564d69646c0000000000000000000000000000000000000000000000000000008152506113dc565b610b393069d3c21bcecceda10000006113f2565b8315610b955760008560000160086101000a81548160ff0219169083151502179055507fc7f505b2f371ae2175ee4913f4499e1f2633a7b5936321eed1cdaeb6115181d26001604051610b8c91906122dd565b60405180910390a15b5050505050565b610ba46111bc565b610bac611474565b565b600080610bb96114e6565b90508060000160009054906101000a900473ffffffffffffffffffffffffffffffffffffffff1691505090565b60606000610bf2610ff1565b9050806004018054610c0390612016565b80601f0160208091040260200160405190810160405280929190818152602001828054610c2f90612016565b8015610c7c5780601f10610c5157610100808354040283529160200191610c7c565b820191906000526020600020905b815481529060010190602001808311610c5f57829003601f168201915b505050505091505090565b600080610c92611019565b9050610c9f8185856110c8565b600191505092915050565b610cb261150e565b610cba611565565b600160003373ffffffffffffffffffffffffffffffffffffffff1673ffffffffffffffffffffffffffffffffffffffff16815260200190815260200160002060009054906101000a900460ff1615610d47576040517f08c379a0000000000000000000000000000000000000000000000000000000008152600401610d3e90612344565b60405180910390fd5b60008060003373ffffffffffffffffffffffffffffffffffffffff1673ffffffffffffffffffffffffffffffffffffffff16815260200190815260200160002054905060008111610dcd576040517f08c379a0000000000000000000000000000000000000000000000000000000008152600401610dc4906123b0565b60405180910390fd5b80610dd73061091b565b1015610e18576040517f08c379a0000000000000000000000000000000000000000000000000000000008152600401610e0f90612442565b60405180910390fd5b60018060003373ffffffffffffffffffffffffffffffffffffffff1673ffffffffffffffffffffffffffffffffffffffff16815260200190815260200160002060006101000a81548160ff021916908315150217905550610e7a3033836110c8565b7f106f923f993c2149d49b4255ff723acafa1f2d94393f561d3eda32ae348f72413382604051610eab92919061225b565b60405180910390a150610ebc6115a6565b565b60006020528060005260406000206000915090505481565b600080610ee1610ff1565b90508060010160008573ffffffffffffffffffffffffffffffffffffffff1673ffffffffffffffffffffffffffffffffffffffff16815260200190815260200160002060008473ffffffffffffffffffffffffffffffffffffffff1673ffffffffffffffffffffffffffffffffffffffff1681526020019081526020016000205491505092915050565b610f736111bc565b600073ffffffffffffffffffffffffffffffffffffffff168173ffffffffffffffffffffffffffffffffffffffff1603610fe55760006040517f1e4fbdf7000000000000000000000000000000000000000000000000000000008152600401610fdc9190611f8c565b60405180910390fd5b610fee816112dd565b50565b60007f52c63247e1f47db19d5ce0460030c497f067ca4cebf71ba98eeadabe20bace00905090565b600033905090565b61102e83838360016115bf565b505050565b600061103f8484610ed6565b90507fffffffffffffffffffffffffffffffffffffffffffffffffffffffffffffffff8110156110c257818110156110b2578281836040517ffb8f41b20000000000000000000000000000000000000000000000000000000081526004016110a993929190612462565b60405180910390fd5b6110c1848484840360006115bf565b5b50505050565b600073ffffffffffffffffffffffffffffffffffffffff168373ffffffffffffffffffffffffffffffffffffffff160361113a5760006040517f96c6fd1e0000000000000000000000000000000000000000000000000000000081526004016111319190611f8c565b60405180910390fd5b600073ffffffffffffffffffffffffffffffffffffffff168273ffffffffffffffffffffffffffffffffffffffff16036111ac5760006040517fec442f050000000000000000000000000000000000000000000000000000000081526004016111a39190611f8c565b60405180910390fd5b6111b78383836117a5565b505050565b6111c4611019565b73ffffffffffffffffffffffffffffffffffffffff166111e2610bae565b73ffffffffffffffffffffffffffffffffffffffff161461124157611205611019565b6040517f118cdaa70000000000000000000000000000000000000000000000000000000081526004016112389190611f8c565b60405180910390fd5b565b61124b6119e4565b60006112556112b5565b905060008160000160006101000a81548160ff0219169083151502179055507f5db9ee0a495bf2e6ff9c91a7834c1ba4fdd244a5e8aa4e537bd38aeae4b073aa61129d611019565b6040516112aa9190611f8c565b60405180910390a150565b60007fcd5ed15c6e187e77e9aee88184c21f4f2182ab5827cb3b7e07fbedcd63f03300905090565b60006112e76114e6565b905060008160000160009054906101000a900473ffffffffffffffffffffffffffffffffffffffff169050828260000160006101000a81548173ffffffffffffffffffffffffffffffffffffffff021916908373ffffffffffffffffffffffffffffffffffffffff1602179055508273ffffffffffffffffffffffffffffffffffffffff168173ffffffffffffffffffffffffffffffffffffffff167f8be0079c531659141344cd1fd0a4f28419497f9722a3daafe3b4186f6b6457e060405160405180910390a3505050565b6000806113bf611a24565b90508091505090565b6113d0611a4f565b6113d981611a8f565b50565b6113e4611a4f565b6113ee8282611b15565b5050565b600073ffffffffffffffffffffffffffffffffffffffff168273ffffffffffffffffffffffffffffffffffffffff16036114645760006040517fec442f0500000000000000000000000000000000000000000000000000000000815260040161145b9190611f8c565b60405180910390fd5b611470600083836117a5565b5050565b61147c611565565b60006114866112b5565b905060018160000160006101000a81548160ff0219169083151502179055507f62e78cea01bee320cd4e420270b5ea74000d11b0c9f74754ebdbfc544b05a2586114ce611019565b6040516114db9190611f8c565b60405180910390a150565b60007f9016d09d72d40fdae2fd8ceac6b6234c7706214fd39c1cd1e609a0528c199300905090565b6000611518611b52565b90506002816000015403611558576040517f3ee5aeb500000000000000000000000000000000000000000000000000000000815260040160405180910390fd5b6002816000018190555050565b61156d610745565b156115a4576040517fd93c066500000000000000000000000000000000000000000000000000000000815260040160405180910390fd5b565b60006115b0611b52565b90506001816000018190555050565b60006115c9610ff1565b9050600073ffffffffffffffffffffffffffffffffffffffff168573ffffffffffffffffffffffffffffffffffffffff160361163d5760006040517fe602df050000000000000000000000000000000000000000000000000000000081526004016116349190611f8c565b60405180910390fd5b600073ffffffffffffffffffffffffffffffffffffffff168473ffffffffffffffffffffffffffffffffffffffff16036116af5760006040517f94280d620000000000000000000000000000000000000000000000000000000081526004016116a69190611f8c565b60405180910390fd5b828160010160008773ffffffffffffffffffffffffffffffffffffffff1673ffffffffffffffffffffffffffffffffffffffff16815260200190815260200160002060008673ffffffffffffffffffffffffffffffffffffffff1673ffffffffffffffffffffffffffffffffffffffff16815260200190815260200160002081905550811561179e578373ffffffffffffffffffffffffffffffffffffffff168573ffffffffffffffffffffffffffffffffffffffff167f8c5be1e5ebec7d5bd14f71427d1e84f3dd0314c0f7b2291e5b200ac8c7c3b925856040516117959190611d6f565b60405180910390a35b5050505050565b60006117af610ff1565b9050600073ffffffffffffffffffffffffffffffffffffffff168473ffffffffffffffffffffffffffffffffffffffff160361180557818160020160008282546117f991906124c8565b925050819055506118de565b60008160000160008673ffffffffffffffffffffffffffffffffffffffff1673ffffffffffffffffffffffffffffffffffffffff16815260200190815260200160002054905082811015611894578481846040517fe450d38c00000000000000000000000000000000000000000000000000000000815260040161188b93929190612462565b60405180910390fd5b8281038260000160008773ffffffffffffffffffffffffffffffffffffffff1673ffffffffffffffffffffffffffffffffffffffff16815260200190815260200160002081905550505b600073ffffffffffffffffffffffffffffffffffffffff168373ffffffffffffffffffffffffffffffffffffffff160361192957818160020160008282540392505081905550611979565b818160000160008573ffffffffffffffffffffffffffffffffffffffff1673ffffffffffffffffffffffffffffffffffffffff168152602001908152602001600020600082825401925050819055505b8273ffffffffffffffffffffffffffffffffffffffff168473ffffffffffffffffffffffffffffffffffffffff167fddf252ad1be2c89b69c2b068fc378daa952ba7f163c4a11628f55a4df523b3ef846040516119d69190611d6f565b60405180910390a350505050565b6119ec610745565b611a22576040517f8dfc202b00000000000000000000000000000000000000000000000000000000815260040160405180910390fd5b565b60007ff0c57e16840df040f15088dc2f81fe391c3923bec73e23a9662efc9c229c6a0060001b905090565b611a57611b7a565b611a8d576040517fd7e6bcf800000000000000000000000000000000000000000000000000000000815260040160405180910390fd5b565b611a97611a4f565b600073ffffffffffffffffffffffffffffffffffffffff168173ffffffffffffffffffffffffffffffffffffffff1603611b095760006040517f1e4fbdf7000000000000000000000000000000000000000000000000000000008152600401611b009190611f8c565b60405180910390fd5b611b12816112dd565b50565b611b1d611a4f565b6000611b27610ff1565b905082816003019081611b3a91906126cd565b5081816004019081611b4c91906126cd565b50505050565b60007f9b779b17422d0df92223018b32b4d1fa46e071723d6817e2486d003becc55f00905090565b6000611b846113b4565b60000160089054906101000a900460ff16905090565b600081519050919050565b600082825260208201905092915050565b60005b83811015611bd4578082015181840152602081019050611bb9565b60008484015250505050565b6000601f19601f8301169050919050565b6000611bfc82611b9a565b611c068185611ba5565b9350611c16818560208601611bb6565b611c1f81611be0565b840191505092915050565b60006020820190508181036000830152611c448184611bf1565b905092915050565b600080fd5b600080fd5b600073ffffffffffffffffffffffffffffffffffffffff82169050919050565b6000611c8182611c56565b9050919050565b611c9181611c76565b8114611c9c57600080fd5b50565b600081359050611cae81611c88565b92915050565b6000819050919050565b611cc781611cb4565b8114611cd257600080fd5b50565b600081359050611ce481611cbe565b92915050565b60008060408385031215611d0157611d00611c4c565b5b6000611d0f85828601611c9f565b9250506020611d2085828601611cd5565b9150509250929050565b60008115159050919050565b611d3f81611d2a565b82525050565b6000602082019050611d5a6000830184611d36565b92915050565b611d6981611cb4565b82525050565b6000602082019050611d846000830184611d60565b92915050565b600080600060608486031215611da357611da2611c4c565b5b6000611db186828701611c9f565b9350506020611dc286828701611c9f565b9250506040611dd386828701611cd5565b9150509250925092565b600060ff82169050919050565b611df381611ddd565b82525050565b6000602082019050611e0e6000830184611dea565b92915050565b600060208284031215611e2a57611e29611c4c565b5b6000611e3884828501611c9f565b91505092915050565b600080fd5b600080fd5b600080fd5b60008083601f840112611e6657611e65611e41565b5b8235905067ffffffffffffffff811115611e8357611e82611e46565b5b602083019150836020820283011115611e9f57611e9e611e4b565b5b9250929050565b60008083601f840112611ebc57611ebb611e41565b5b8235905067ffffffffffffffff811115611ed957611ed8611e46565b5b602083019150836020820283011115611ef557611ef4611e4b565b5b9250929050565b60008060008060408587031215611f1657611f15611c4c565b5b600085013567ffffffffffffffff811115611f3457611f33611c51565b5b611f4087828801611e50565b9450945050602085013567ffffffffffffffff811115611f6357611f62611c51565b5b611f6f87828801611ea6565b925092505092959194509250565b611f8681611c76565b82525050565b6000602082019050611fa16000830184611f7d565b92915050565b60008060408385031215611fbe57611fbd611c4c565b5b6000611fcc85828601611c9f565b9250506020611fdd85828601611c9f565b9150509250929050565b7f4e487b7100000000000000000000000000000000000000000000000000000000600052602260045260246000fd5b6000600282049050600182168061202e57607f821691505b60208210810361204157612040611fe7565b5b50919050565b7f4172726179206c656e677468206d69736d617463680000000000000000000000600082015250565b600061207d601583611ba5565b915061208882612047565b602082019050919050565b600060208201905081810360008301526120ac81612070565b9050919050565b7f4e487b7100000000000000000000000000000000000000000000000000000000600052603260045260246000fd5b600082825260208201905092915050565b6000819050919050565b61210681611c76565b82525050565b600061211883836120fd565b60208301905092915050565b60006121336020840184611c9f565b905092915050565b6000602082019050919050565b600061215483856120e2565b935061215f826120f3565b8060005b85811015612198576121758284612124565b61217f888261210c565b975061218a8361213b565b925050600181019050612163565b5085925050509392505050565b600082825260208201905092915050565b600080fd5b82818337505050565b60006121d083856121a5565b93507f07ffffffffffffffffffffffffffffffffffffffffffffffffffffffffffffff831115612203576122026121b6565b5b6020830292506122148385846121bb565b82840190509392505050565b6000604082019050818103600083015261223b818688612148565b905081810360208301526122508184866121c4565b905095945050505050565b60006040820190506122706000830185611f7d565b61227d6020830184611d60565b9392505050565b6000819050919050565b600067ffffffffffffffff82169050919050565b6000819050919050565b60006122c76122c26122bd84612284565b6122a2565b61228e565b9050919050565b6122d7816122ac565b82525050565b60006020820190506122f260008301846122ce565b92915050565b7f52657761726473207765726520636c61696d656420616c726561647900000000600082015250565b600061232e601c83611ba5565b9150612339826122f8565b602082019050919050565b6000602082019050818103600083015261235d81612321565b9050919050565b7f4e6f207265776172647320617661696c61626c6520746f207769746864726177600082015250565b600061239a602083611ba5565b91506123a582612364565b602082019050919050565b600060208201905081810360008301526123c98161238d565b9050919050565b7f436f6e747261637420646f6573206e6f74206861766520656e6f75676820667560008201527f6e64730000000000000000000000000000000000000000000000000000000000602082015250565b600061242c602383611ba5565b9150612437826123d0565b604082019050919050565b6000602082019050818103600083015261245b8161241f565b9050919050565b60006060820190506124776000830186611f7d565b6124846020830185611d60565b6124916040830184611d60565b949350505050565b7f4e487b7100000000000000000000000000000000000000000000000000000000600052601160045260246000fd5b60006124d382611cb4565b91506124de83611cb4565b92508282019050808211156124f6576124f5612499565b5b92915050565b7f4e487b7100000000000000000000000000000000000000000000000000000000600052604160045260246000fd5b60008190508160005260206000209050919050565b60006020601f8301049050919050565b600082821b905092915050565b60006008830261258d7fffffffffffffffffffffffffffffffffffffffffffffffffffffffffffffffff82612550565b6125978683612550565b95508019841693508086168417925050509392505050565b60006125ca6125c56125c084611cb4565b6122a2565b611cb4565b9050919050565b6000819050919050565b6125e4836125af565b6125f86125f0826125d1565b84845461255d565b825550505050565b600090565b61260d612600565b6126188184846125db565b505050565b5b8181101561263c57612631600082612605565b60018101905061261e565b5050565b601f821115612681576126528161252b565b61265b84612540565b8101602085101561266a578190505b61267e61267685612540565b83018261261d565b50505b505050565b600082821c905092915050565b60006126a460001984600802612686565b1980831691505092915050565b60006126bd8383612693565b9150826002028217905092915050565b6126d682611b9a565b67ffffffffffffffff8111156126ef576126ee6124fc565b5b6126f98254612016565b612704828285612640565b600060209050601f8311600181146127375760008415612725578287015190505b61272f85826126b1565b865550612797565b601f1984166127458661252b565b60005b8281101561276d57848901518255600182019150602085019450602081019050612748565b8683101561278a5784890151612786601f891682612693565b8355505b6001600288020188555050505b50505050505056fea2646970667358221220a6366b3d17313cbee414fc1968dfc95574f9f46c5b2db3984f3acacf61afc25464736f6c634300081c0033",
  "linkReferences": {},
  "deployedLinkReferences": {}
}