{
  "_format": "hh-sol-artifact-1",
  "contractName": "ReserveLogic",
  "sourceName": "contracts/ReserveLogic.sol",
  "abi": [
    {
      "inputs": [],
      "name": "c",
      "outputs": [
        {
          "internalType": "uint256",
          "name": "",
          "type": "uint256"
        }
      ],
      "stateMutability": "view",
      "type": "function"
    }
  ],
  "bytecode": "0x60c0610051600b82828239805160001a6073146044577f4e487b7100000000000000000000000000000000000000000000000000000000600052600060045260246000fd5b30600052607381538281f3fe730000000000000000000000000000000000000000301460806040526004361060335760003560e01c8063c3da42b8146038575b600080fd5b603e6052565b604051604991906071565b60405180910390f35b600043905090565b6000819050919050565b606b81605a565b82525050565b6000602082019050608460008301846064565b9291505056fea264697066735822122044976363eeee106330527cbc2d072fe37a13e6282d047f1e7adc7fbcd9cca62e64736f6c634300081c0033",
  "linkReferences": {},
  "deployedLinkReferences": {}
}