{
  "_format": "hh-sol-artifact-1",
  "contractName": "BorrowLogic",
  "sourceName": "contracts/BorrowLogic.sol",
  "abi": [
    {
      "inputs": [],
      "name": "b",
      "outputs": [
        {
          "internalType": "uint256",
          "name": "",
          "type": "uint256"
        }
      ],
      "stateMutability": "pure",
      "type": "function"
    }
  ],
  "bytecode": "0x60c1610051600b82828239805160001a6073146044577f4e487b7100000000000000000000000000000000000000000000000000000000600052600060045260246000fd5b30600052607381538281f3fe730000000000000000000000000000000000000000301460806040526004361060335760003560e01c80634df7e3d0146038575b600080fd5b603e6052565b604051604991906072565b60405180910390f35b60006001905090565b6000819050919050565b606c81605b565b82525050565b6000602082019050608560008301846065565b9291505056fea26469706673582212203ce3f4bd81ffcaffafa918629be759a08506233aa5e82c3c26542a4359013d9164736f6c634300081c0033",
  "linkReferences": {},
  "deployedLinkReferences": {}
}