{
	"_format": "hh-sol-artifact-1",
	"contractName": "RunesRelayer",
	"sourceName": "contracts/RunesRelayer.sol",
	"abi": [
		{
			"inputs": [
				{
					"internalType": "contract IERC20",
					"name": "_collERC20",
					"type": "address"
				}
			],
			"stateMutability": "nonpayable",
			"type": "constructor"
		},
		{
			"inputs": [
				{
					"internalType": "address",
					"name": "token",
					"type": "address"
				}
			],
			"name": "SafeERC20FailedOperation",
			"type": "error"
		},
		{
			"anonymous": false,
			"inputs": [
				{
					"indexed": false,
					"internalType": "uint256",
					"name": "amount",
					"type": "uint256"
				},
				{
					"indexed": false,
					"internalType": "address",
					"name": "user",
					"type": "address"
				}
			],
			"name": "RedemptionExecuted",
			"type": "event"
		},
		{
			"anonymous": false,
			"inputs": [
				{
					"indexed": false,
					"internalType": "uint256",
					"name": "amount",
					"type": "uint256"
				},
				{
					"indexed": false,
					"internalType": "address",
					"name": "user",
					"type": "address"
				}
			],
			"name": "RedemptionRequested",
			"type": "event"
		},
		{
			"inputs": [],
			"name": "collateralERC20",
			"outputs": [
				{
					"internalType": "contract IERC20",
					"name": "",
					"type": "address"
				}
			],
			"stateMutability": "view",
			"type": "function"
		},
		{
			"inputs": [
				{
					"internalType": "uint256",
					"name": "_amount",
					"type": "uint256"
				}
			],
			"name": "depositRune",
			"outputs": [],
			"stateMutability": "nonpayable",
			"type": "function"
		},
		{
			"inputs": [
				{
					"internalType": "uint256",
					"name": "_amount",
					"type": "uint256"
				}
			],
			"name": "withdrawRune",
			"outputs": [],
			"stateMutability": "nonpayable",
			"type": "function"
		}
	],
	"bytecode": "0x608060405234801561001057600080fd5b5060405161060d38038061060d833981810160405281019061003291906100ed565b806000806101000a81548173ffffffffffffffffffffffffffffffffffffffff021916908373ffffffffffffffffffffffffffffffffffffffff1602179055505061011a565b600080fd5b600073ffffffffffffffffffffffffffffffffffffffff82169050919050565b60006100a88261007d565b9050919050565b60006100ba8261009d565b9050919050565b6100ca816100af565b81146100d557600080fd5b50565b6000815190506100e7816100c1565b92915050565b60006020828403121561010357610102610078565b5b6000610111848285016100d8565b91505092915050565b6104e4806101296000396000f3fe608060405234801561001057600080fd5b50600436106100415760003560e01c80636d12014214610046578063724d374514610062578063c4c8641214610080575b600080fd5b610060600480360381019061005b919061033c565b61009c565b005b61006a6100ea565b60405161007791906103e8565b60405180910390f35b61009a6004803603810190610095919061033c565b61010e565b005b6100e7338260008054906101000a900473ffffffffffffffffffffffffffffffffffffffff1673ffffffffffffffffffffffffffffffffffffffff1661015e9092919063ffffffff16565b50565b60008054906101000a900473ffffffffffffffffffffffffffffffffffffffff1681565b61015b33308360008054906101000a900473ffffffffffffffffffffffffffffffffffffffff1673ffffffffffffffffffffffffffffffffffffffff166101dd909392919063ffffffff16565b50565b6101d8838473ffffffffffffffffffffffffffffffffffffffff1663a9059cbb8585604051602401610191929190610433565b604051602081830303815290604052915060e01b6020820180517bffffffffffffffffffffffffffffffffffffffffffffffffffffffff838183161783525050505061025f565b505050565b610259848573ffffffffffffffffffffffffffffffffffffffff166323b872dd8686866040516024016102129392919061045c565b604051602081830303815290604052915060e01b6020820180517bffffffffffffffffffffffffffffffffffffffffffffffffffffffff838183161783525050505061025f565b50505050565b600080602060008451602086016000885af180610282576040513d6000823e3d81fd5b3d92506000519150506000821461029d5760018114156102b9565b60008473ffffffffffffffffffffffffffffffffffffffff163b145b156102fb57836040517f5274afe70000000000000000000000000000000000000000000000000000000081526004016102f29190610493565b60405180910390fd5b50505050565b600080fd5b6000819050919050565b61031981610306565b811461032457600080fd5b50565b60008135905061033681610310565b92915050565b60006020828403121561035257610351610301565b5b600061036084828501610327565b91505092915050565b600073ffffffffffffffffffffffffffffffffffffffff82169050919050565b6000819050919050565b60006103ae6103a96103a484610369565b610389565b610369565b9050919050565b60006103c082610393565b9050919050565b60006103d2826103b5565b9050919050565b6103e2816103c7565b82525050565b60006020820190506103fd60008301846103d9565b92915050565b600061040e82610369565b9050919050565b61041e81610403565b82525050565b61042d81610306565b82525050565b60006040820190506104486000830185610415565b6104556020830184610424565b9392505050565b60006060820190506104716000830186610415565b61047e6020830185610415565b61048b6040830184610424565b949350505050565b60006020820190506104a86000830184610415565b9291505056fea2646970667358221220a995464b7a23208251c9a98cbc0e2a229cbab85621b03cec43c5156d48b154e364736f6c634300081c0033",
	"linkReferences": {},
	"deployedLinkReferences": {}
}