{
	"_format": "hh-sol-artifact-1",
	"contractName": "Foo",
	"sourceName": "contracts/Foo.sol",
	"abi": [
		{
			"inputs": [
				{
					"internalType": "uint256",
					"name": "_randomArg",
					"type": "uint256"
				}
			],
			"stateMutability": "nonpayable",
			"type": "constructor"
		},
		{
			"inputs": [
				{
					"components": [
						{
							"internalType": "address",
							"name": "aTokenImpl",
							"type": "address"
						},
						{
							"internalType": "address",
							"name": "stableDebtTokenImpl",
							"type": "address"
						},
						{
							"internalType": "address",
							"name": "variableDebtTokenImpl",
							"type": "address"
						},
						{
							"internalType": "uint8",
							"name": "underlyingAssetDecimals",
							"type": "uint8"
						},
						{
							"internalType": "address",
							"name": "interestRateStrategyAddress",
							"type": "address"
						},
						{
							"internalType": "address",
							"name": "underlyingAsset",
							"type": "address"
						},
						{
							"internalType": "address",
							"name": "treasury",
							"type": "address"
						},
						{
							"internalType": "address",
							"name": "incentivesController",
							"type": "address"
						},
						{
							"internalType": "string",
							"name": "aTokenName",
							"type": "string"
						},
						{
							"internalType": "string",
							"name": "aTokenSymbol",
							"type": "string"
						},
						{
							"internalType": "string",
							"name": "variableDebtTokenName",
							"type": "string"
						},
						{
							"internalType": "string",
							"name": "variableDebtTokenSymbol",
							"type": "string"
						},
						{
							"internalType": "string",
							"name": "stableDebtTokenName",
							"type": "string"
						},
						{
							"internalType": "string",
							"name": "stableDebtTokenSymbol",
							"type": "string"
						},
						{
							"internalType": "bytes",
							"name": "params",
							"type": "bytes"
						}
					],
					"internalType": "struct Foo.InitReserveInput[]",
					"name": "input",
					"type": "tuple[]"
				}
			],
			"name": "initReserves",
			"outputs": [],
			"stateMutability": "nonpayable",
			"type": "function"
		}
	],
	"bytecode": "0x6080604052348015600f57600080fd5b506040516101cb3803806101cb8339818101604052810190602f9190606a565b506092565b600080fd5b6000819050919050565b604a816039565b8114605457600080fd5b50565b6000815190506064816043565b92915050565b600060208284031215607d57607c6034565b5b60006089848285016057565b91505092915050565b61012a806100a16000396000f3fe6080604052348015600f57600080fd5b506004361060285760003560e01c806302fb45e614602d575b600080fd5b60436004803603810190603f919060af565b6045565b005b5050565b600080fd5b600080fd5b600080fd5b600080fd5b600080fd5b60008083601f84011260755760746053565b5b8235905067ffffffffffffffff811115608f57608e6058565b5b60208301915083602082028301111560a85760a7605d565b5b9250929050565b6000806020838503121560c35760c26049565b5b600083013567ffffffffffffffff81111560de5760dd604e565b5b60e8858286016062565b9250925050925092905056fea2646970667358221220c9fc8ff70a1bcdaf7f265ba8576c98044ac2bc7fa1de981f272e3c45bba7443564736f6c634300081c0033",
	"linkReferences": {},
	"deployedLinkReferences": {}
}